:1000000097C30000C6C30000C4C30000C2C3000001
:10001000C0C30000BEC30000BCC30000BAC30000E0
:10002000B8C30000B6C30000B4C30000B2C30000F0
:10003000B0C30000AEC30000ACC30000AAC3000000
:10004000A8C30000A6C30000A4C30000A2C3000010
:10005000A0C300009EC300009CC300000C94C20F0C
:1000600098C300000C94D50E0C94AB0E92C3000004
:1000700090C300008EC300008CC300008AC3000040
:1000800088C3000086C3000084C3000082C3000050
:1000900080C300007EC300007CC300000C940C10E1
:1000A00078C3000076C3000074C3000072C3000070
:1000B00070C300006EC300006CC300006AC3000080
:1000C00068C3000066C3000064C3000062C3000090
:1000D00060C300005EC300005CC300005AC30000A0
:1000E00058C300003A0F3D0F2C0F300F340F740F20
:1000F000410F450F4B0F4F0F530F590F5D0F610FFE
:10010000740F670F6B0F6F0F00000000003E5B4F16
:100110005B3E3E6B4F6B3E1C3E7C3E1C183C7E3C67
:10012000181C577D571C1C5E7F5E1C00183C180075
:10013000FFE7C3E7FF0018241800FFE7DBE7FF3005
:10014000483A060E2629792926407F050507407F73
:1001500005253F5A3CE73C5A7F3E1C1C08081C1CE6
:100160003E7F14227F22145F5F005F5F06097F01DC
:100170007F006689956A606060606094A2FFA294C7
:1001800008047E040810207E201008082A1C080895
:100190001C2A08081E101010100C1E0C1E0C3038E3
:1001A0003E3830060E3E0E06000000000000005FE4
:1001B00000000007000700147F147F14242A7F2A00
:1001C00012231308646236495620500008070300C2
:1001D000001C2241000041221C002A1C7F1C2A080E
:1001E000083E080800807030000808080808000071
:1001F00060600020100804023E5149453E00427FE5
:10020000400072494949462141494D331814127F33
:100210001027454545393C4A4949314121110907D3
:100220003649494936464949291E00001400000054
:100230004034000000081422411414141414004126
:1002400022140802015909063E415D594E7C1211E3
:10025000127C7F494949363E414141227F4141411B
:100260003E7F494949417F090909013E4141517396
:100270007F0808087F00417F41002040413F017F07
:10028000081422417F404040407F021C027F7F04CF
:1002900008107F3E4141413E7F090909063E415118
:1002A000215E7F09192946264949493203017F0108
:1002B000033F4040403F1F2040201F3F4038403F09
:1002C000631408146303047804036159494D43001F
:1002D0007F4141410204081020004141417F040256
:1002E00001020440404040400003070800205454ED
:1002F00078407F28444438384444442838444428CB
:100300007F385454541800087E090218A4A49C781D
:100310007F0804047800447D40002040403D007F79
:100320001028440000417F40007C047804787C0859
:100330000404783844444438FC182424181824242D
:1003400018FC7C08040408485454542404043F4412
:10035000243C4040207C1C2040201C3C4030403C41
:1003600044281028444C9090907C4464544C4400A1
:100370000836410000007700000041360800020105
:100380000204023C2623263C1EA1A161123A4040F1
:10039000207A38545455592155557941225454786E
:1003A00042215554784020545579400C1E52721207
:1003B0003955555559395454545939555454580090
:1003C00000457C410002457D420001457C407D1294
:1003D00011127DF0282528F07C54554500205454F6
:1003E0007C547C0A097F4932494949323A444444A1
:1003F0003A324A4848303A4141217A3A42402078DC
:10040000009DA0A07D3D4242423D3D4040403D3CDC
:1004100024FF2424487E4943662B2FFC2F2BFF0901
:1004200029F620C0887E09032054547941000044F5
:100430007D413048484A32384040227A007A0A0AE0
:10044000727D0D19317D2629292F28262929292653
:1004500030484D4020380808080808080808382F98
:1004600010C8ACBA2F102834FA00007B0000081422
:100470002A142222142A14085500550055AA55AAF8
:1004800055AAFF55FF55FF000000FF00101010FF98
:1004900000141414FF001010FF00FF1010F010F0F3
:1004A000141414FC001414F700FF0000FF00FF14E4
:1004B00014F404FC141417101F10101F101F141430
:1004C000141F00101010F0000000001F101010107A
:1004D0001F10101010F010000000FF10101010106E
:1004E00010101010FF10000000FF140000FF00FFAC
:1004F00000001F10170000FC04F414141710171448
:1005000014F404F40000FF00F71414141414141469
:10051000F700F7141414171410101F101F141414DC
:10052000F4141010F010F000001F101F0000001F46
:1005300014000000FC140000F010F01010FF10FF79
:10054000141414FF141010101F00000000F010FF0E
:10055000FFFFFFFFF0F0F0F0F0FFFFFF00000000F2
:1005600000FFFF0F0F0F0F0F3844443844FC4A4A76
:100570004A347E02020606027E027E02635549412B
:10058000633844443C04407E201E2006027E020262
:1005900099A5E7A5991C2A492A1C4C7201724C3076
:1005A0004A4D4D303048784830BC625A463D3E494D
:1005B0004949007E0101017E2A2A2A2A2A44445FF1
:1005C000444440514A444040444A51400000FF01E5
:1005D00003E080FF000008086B6B083612362436F3
:1005E000060F090F06000018180000001010003058
:1005F00040FF0101001F01011E00191D1712003CE0
:100600003C3C3C000000000000000A0B02090C0DFD
:100610000E080703040100000000000000000000B5
:1006200000000000000000000000000000000000CA
:100630000000000012111000000000000000000087
:1006400000000000000000000000000000000000AA
:100650002200250028002B002E003100340002016A
:100660000000050108010B01000021002400270003
:100670002A002D00300033000101000004010701B1
:100680000A01050505050705080808080202020217
:100690000A0A08080404040401010101010101011E
:1006A0000303030303030303040707070C0C0C0CE9
:1006B0000C0C0C0C020202020606060606060606D2
:1006C0000B0B0B0B0B0B0B0B01021020200808105F
:1006D00020401020408002010201080402010102B2
:1006E000040810204080804020100804020180048B
:1006F00002018040201008040201080402010102E6
:10070000040810204080010204081020408000C02E
:1007100001C001C003E0F3E0FEF87EFF339F1FFC41
:100720000D701BA03FE03FF07CF0707000309F1F09
:1007300011241FBECFEFD1E2DEBFCDBF00E00CBF62
:1007400016E0A0E0B2E0E8EAF1E400E00BBF02C08E
:1007500007900D92AE38B107D9F728E0AEE8B6E0C1
:1007600001C01D92A330B207E1F713E0C8E9D3E05E
:1007700000E006C021970109802FFE010E94C620DB
:10078000C739D10780E00807A9F70E942F150C94FC
:10079000D22036CCFC01538D448D252F30E0842FA0
:1007A00090E0821B930B541710F0CF960895019799
:1007B0000895FC01918D828D981761F0828DDF0183
:1007C000A80FB11D5D968C91928D9F5F9F73928F44
:1007D00090E008958FEF9FEF0895FC01918D828D39
:1007E000981731F0828DE80FF11D858D90E0089506
:1007F0008FEF9FEF0895FC01918D228D892F90E05E
:10080000805C9F4F821B91098F73992708958BE21B
:1008100097E0F1DF21E0892B09F420E0822F089591
:10082000FC01848DDF01A80FB11DA35ABF4F2C918D
:10083000848D90E001968F739927848FA689B7895C
:100840002C93A089B1898C9180648C93938D848D35
:10085000981306C00288F389E02D80818F7D808304
:100860000895EF92FF920F931F93CF93DF93EC01C4
:1008700081E0888F9B8D8C8D981305C0E889F9895C
:10088000808185FD23C0F62E0B8D10E00F5F1F4F7A
:100890000F731127E02E8C8DE8120BC00FB607FCEA
:1008A000FACFE889F989808185FFF5CFCE01B8DFDD
:1008B000F2CF8B8DFE01E80FF11DE35AFF4FF0825E
:1008C0000B8FEA89FB898081806207C0EE89FF89EE
:1008D0006083E889F98980818064808381E090E089
:1008E000DF91CF911F910F91FF90EF900895CF93DB
:1008F000DF93EC01888D8823C1F0EA89FB89808130
:1009000085FD05C0A889B9898C9186FD0EC00FB6FA
:1009100007FCF5CF808185FFF2CFA889B9898C913A
:1009200085FFEDCFCE017CDFE8CFDF91CF91089539
:1009300080E090E0892B19F06ADF811125C080E00A
:1009400090E0892B41F080E090E0892B21F00E941B
:10095000000081111CC080E090E0892B41F080E014
:1009600090E0892B21F00E940000811113C080E0EB
:1009700090E0892BA1F080E090E0892B81F00E942B
:10098000000081110AC008950E940000D8CF0E9483
:100990000000E1CF0E940000EACF0C94000008950F
:1009A0003FB7F8948091DD069091DE06A091DF06B6
:1009B000B091E00626B5A89B05C02F3F19F001961F
:1009C000A11DB11D3FBFBA2FA92F982F8827820FD5
:1009D000911DA11DB11DBC01CD0142E0660F771F25
:1009E000881F991F4A95D1F708950F931F93CF93AE
:1009F000DF93DC0155968C915597823071F08330EE
:100A000009F1813009F08CC01496ED91FC91159795
:100A1000E41BF50BE21BF30B20C01496ED91FC9147
:100A20001597CF01861B970BBC0161507109169673
:100A3000ED91FC911797CF01841B950BAC01421BE4
:100A4000530B6EC01696ED91FC911797CF01861B44
:100A5000970BBC0161507109FA0177FD1BC1169615
:100A60008D919C911797681779070CF013C1F7FFC8
:100A700004C02E0F3F1FE0E0F0E014968D919C9192
:100A80001597AF01420F531F841795071CF49C0163
:100A90002E1B3F0B121613060CF0FCC0CB0177FD8A
:100AA000079643E0959587954A95E1F79695982F97
:100AB000882797958795E80FF91FE050FE4F6770DC
:100AC000772781E090E001C0880F6A95EAF7482F08
:100AD0000130110541F088F00230110509F0DAC04B
:100AE0002E0F3F1F15C02E0F3F1FE217F30709F40B
:100AF000D1C08081842B8193F8CF80952E0F3F1F2A
:100B0000E217F30709F4C6C0908198239193F8CFB8
:100B1000E217F30709F4BEC0808184278193F8CFE0
:100B200077FDB8C014968D919C9115976817790739
:100B30000CF0B0C057FF04C0240F351F40E050E058
:100B400016968D919C911797FA01E20FF31F8E175D
:100B50009F071CF49C01241B350B121613060CF086
:100B600099C0A22F842F86958695869590E8899FB7
:100B7000600D711D1124FB01E050FE4F4770A9F17B
:100B800098E0941B492F50E0EA01C45FD94F888157
:100B9000291790F4421B51092FEF30E002C0359520
:100BA00027954A95E2F782230130110541F068F05C
:100BB0000230110589F06EC00130110519F4208151
:100BC000822B0CC00130110520F4809520818223F6
:100BD00005C00230110531F4208182278083A917D6
:100BE00008F458C0A91BE058FF4FA83048F1023064
:100BF000110559F4EF018A2F988190959883C05878
:100C0000DF4F88508830C0F730C081E001301105D7
:100C100009F080E08195EF019A2F8883C058DF4F5B
:100C200098509830D0F788EF8A0F869586958695EC
:100C300090E8899FE00DF11D1124E058FF4FA77047
:100C4000AA2341F1B0E0AC5FB94F8C91013011059E
:100C500029F038F002301105D1F01CC09081892BA9
:100C600018C080959081892314C088EF8A0F8695DB
:100C70008695869590E8899FE00DF11D1124E05836
:100C8000FF4FA77039F0B0E0AC5FB94F8C91908105
:100C900089278083DF91CF911F910F9108950F9342
:100CA0001F93CF93DF93DC01FB0155968C915597F1
:100CB000823081F0833019F1813051F514968D9195
:100CC0009C911597BC01641B750BAB0141505109F8
:100CD000BF0181C014966D917C911597CB018E1B3D
:100CE0009F0BFC0116968D919C911797BC01641B7C
:100CF000750BAB0141505109E21BF30B09C016966D
:100D00006D917C9117976E1B7F0B621B730B63C0F9
:100D100057FD1CC116968D919C911797481759073E
:100D20000CF014C1F7FF04C02E0F3F1FE0E0F0E00D
:100D300014968D919C911597BF01620F731F8617B2
:100D400097071CF49C012E1B3F0B121613060CF088
:100D5000FDC0CA0157FD079663E0959587956A9592
:100D6000E1F79695982F882797958795E80FF91FB3
:100D7000E050FE4F4770552781E090E001C0880F9A
:100D80004A95EAF7482F0130110541F088F002300A
:100D9000110509F0DBC02E0F3F1F15C02E0F3F1F9E
:100DA000E217F30709F4D2C08081842B8193F8CF36
:100DB00080952E0F3F1FE217F30709F4C7C09081FB
:100DC00098239193F8CFE217F30709F4BFC080810D
:100DD00084278193F8CF57FDB9C014968D919C91CB
:100DE0001597481759070CF0B1C077FF04C0260FBC
:100DF000371F60E070E016968D919C911797FB016C
:100E0000E20FF31F8E179F071CF49C01261B370B64
:100E1000121613060CF09AC0A22F862F869586957F
:100E2000869590E8899F400D511D1124FA01E050EC
:100E3000FE4F6770A9F198E0961B492F50E0EA0138
:100E4000C45FD94F8881291790F4421B51092FEFB5
:100E500030E002C0359527954A95E2F782230130AC
:100E6000110541F068F00230110589F06FC00130C2
:100E7000110519F42081822B0CC00130110520F4DA
:100E800080952081822305C00230110531F4208134
:100E900082278083A91708F459C0A91BE058FF4F87
:100EA000A83048F10230110559F4EF018A2F9881DA
:100EB00090959883C058DF4F88508830C0F731C074
:100EC00081E00130110509F080E08195EF019A2F52
:100ED0008883C058DF4F98509830D0F788EF8A0F3A
:100EE00086958695869560E8869FE00DF11D112414
:100EF000E058FF4FA770AA2349F1B0E0AC5FB94FAB
:100F00008C910130110529F038F002301105D9F02B
:100F10001DC09081892B03C0809590818923808397
:100F200015C088EF8A0F86958695869570E8879F0D
:100F3000E00DF11D1124E058FF4FA77039F0B0E02B
:100F4000AC5FB94F8C9190818927E9CFDF91CF9128
:100F50001F910F910895FC0177FD9AC080859185BE
:100F6000681779070CF094C057FD92C0828593856D
:100F7000481759070CF08CC08589823009F07CC075
:100F800084819581DC01A61BB70BBD0161507109FD
:100F900086819781FC01E41BF50BAF01415051099B
:100FA0000AC0813041F484819581841B950BAB018B
:100FB000BC01615071092130310529F008F122305E
:100FC0003105E1F10895FA0157FD3796A3E0F59553
:100FD000E795AA95E1F7F695FE2FEE27F795E795A9
:100FE0006E0F7F1FFB01E050FE4F4770552781E0D9
:100FF00090E001C0880F4A95EAF79081892B3AC0AA
:10100000FA0157FD379623E0F595E7952A95E1F724
:10101000F695FE2FEE27F795E7956E0F7F1FFB01E4
:10102000E050FE4F4770552781E090E001C0880FE7
:101030004A95EAF78095908189231CC0FA0157FDF3
:10104000379683E0F595E7958A95E1F7F695FE2FBB
:10105000EE27F795E7956E0F7F1FFB01E050FE4FDF
:101060004770552781E090E001C0880F4A95EAF764
:101070009081892780830895833009F092CF8681FB
:101080009781861B970BBA01AC014150510993CF50
:1010900008950895FC016370658B84819581268194
:1010A0003781613039F0633029F091878087338749
:1010B00022870895318720879387828708952F920A
:1010C0003F924F925F926F927F928F929F92AF92D8
:1010D000BF92CF92DF92EF92FF920F931F93CF9325
:1010E000DF93CDB7DEB76C970FB6F894DEBF0FBEB7
:1010F000CDBF9C8F8B8F5B011A011F830E8337013D
:10110000C982DC0158964D915C9159974115510562
:1011100009F0E5C018968D919C9119976817790789
:101120000CF0CAC11A968D919C911B97281639060E
:101130000CF0C2C18C2C912CFB0136E0C39EE00D5B
:10114000F11D1124FB87EA871E161F060CF0B4C19F
:10115000C40133E0880F991F3A95E1F79D878C878A
:10116000820D931D181619060CF0A6C157968C9186
:10117000811103C0203B08F02F5FAB8DBC8DED913A
:10118000FC9111970284F385E02DCD012A8F1995EA
:101190002A8DB5E02B9F90011124F5013596FF872C
:1011A000EE87BB82AA822501A9014A195B09598BE6
:1011B000488BC10108969B8B8A8BE889F989E40DDD
:1011C000F51DE85FFE4F9491988761013D822C8266
:1011D000A885A0FF13C0AB8DBC8DED91FC91B981AA
:1011E000B13031F40484F585E02D2E813F8116C0A5
:1011F0000684F785E02DEE80FF801AC0EE81FF8126
:101200006E167F06F1F0AB8DBC8DED91FC91B9812E
:10121000B13051F40484F585E02D9301A601B201AB
:101220008B8D9C8D19950DC00684F785E02D73017B
:10123000840194014C815D816A817B818B8D9C8DC1
:101240001995E885E695E887FFEFCF1ADF0A2C812C
:101250003D81280D391D3D832C834A895B89C41645
:10126000D50609F0B5CF5FEF451A550A8A819B81F3
:10127000880D991D9B838A83AE85BF854A165B06C0
:1012800009F09BCFEE81FF816E167F0609F4F2C054
:10129000EB8DFC8DA081B181F981F13079F4B5013C
:1012A0006B5F7F4F5096ED91FC915197830128E041
:1012B00030E0A1018B8D9C8D1995DCC06A857B8502
:1012C000681979091E96ED91FC911F9773010C85A1
:1012D0001D859401A1018B8D9C8D1995CBC0FA01C0
:1012E00034969491329765917491291BCB01B7E0A4
:1012F0002B9F800D911D1124FA01259134913B8B78
:101300002A8BFC01459154915B834A83FC01329600
:10131000C490319654915E87329614913196D49050
:101320008981823058F0612E012E000C7708AD2D96
:101330000D2C000CBB0BB987A88704C01986188632
:10134000612C712CAB8DBC8DED91FC9111970284B9
:10135000F385E02DCD011995B9818B2E912C689CD8
:10136000C001699C900D789C900D1124FC01EA0D40
:10137000FB1DFD87EC871C82712C612CE12F110F66
:10138000FF0B95012E0F3F1F3B872A87AC0CB11C2A
:10139000A5014E0F5F1F5F8B4E8BC1018D0D911DFF
:1013A000D7FC9A95998F888F4E85641608F062C095
:1013B000862D90E048855985480F591F489D90011A
:1013C000499D300D589D300D1124D901A20DB31D3A
:1013D000B98BA88BAA84BB844C845D84DC80BA85DD
:1013E000DB1AE88DF98DE80FF91FFD8BEC8B8D2D45
:1013F0008A0D2E893F89A216B306B9F1877061F470
:101400008A819B810196EA89FB89AA81BB81EA0FC7
:10141000FB1F74909B838A8377FE20C0AB8DBC8DAD
:10142000ED91FC91B981B13061F40484F585E02D32
:101430002E813F814C895D89B5018B8D9C8D1995DD
:101440000DC00684F785E02DEE80FF8084019401B5
:1014500048895989B2018B8D9C8D1995770CEFEFD6
:10146000AE1ABE0A480C591CC2CF3C813C0D3C83CD
:1014700063949ACFAB8DBC8DED91FC91119706884A
:10148000F789E02DCD016C960FB6F894DEBF0FBE44
:10149000CDBFDF91CF911F910F91FF90EF90DF9023
:1014A000CF90BF90AF909F908F907F906F905F9004
:1014B0004F903F902F9019946C960FB6F894DEBF22
:1014C0000FBECDBFDF91CF911F910F91FF90EF9095
:1014D000DF90CF90BF90AF909F908F907F906F9054
:1014E0005F904F903F902F900895AF92BF92CF9210
:1014F000EF92FF920F931F93CF93DF93EC01262F70
:10150000888D998D009709F03FC06A3059F41D8687
:101510001C862C898E859F8538E0239F800D911D28
:10152000112440C06D3009F4A8C08E898823C1F011
:101530003C898C859D8546E0349F800D911D11244A
:1015400048855985481759075CF41D861C868E8589
:101550009F8548E0349F800D911D11249F878E87C1
:10156000EA88FB88088919894E855F856C857D85A9
:10157000CC88CE01A4DD2C898C859D8536E0239F07
:10158000800D911D112442C06A3079F41D861C869D
:101590002C89FC013696E4918E859F852E9F800DC7
:1015A000911D11249F878E8768C06D3009F465C036
:1015B000FC0134963491631708F45FC03196E491CE
:1015C000E61708F45AC0FC013296A590B490462F55
:1015D00050E0431B510937E0349FB001359F700D37
:1015E0001124A60EB71EF501329634913196E4917E
:1015F000332311F0E1110DC0F5013496E4912C89EB
:101600008C859D85E29F800D911D11249D878C877F
:1016100034C0F501359644915E89552311F16C89EA
:10162000E32FF0E0E40FF11D47FDFA956E9FD00126
:101630006F9FB00D11244C855D854A0F5B1FE885B7
:10164000F985E417F5076CF41D861C86FC013696B7
:10165000E4918E859F856E9F800D911D11249F873B
:101660008E87EA88FB88088919894E855F856C8595
:101670007D85CC88CE0123DDBFCF81E090E0DF9176
:10168000CF911F910F91FF90EF90CF90BF90AF90AF
:1016900008956F927F928F929F92AF92BF92CF9256
:1016A000DF92EF92FF920F931F93CF93DF93EC01A2
:1016B0004B015A0169013801E881F9810284F385FF
:1016C000E02D1995E881F9810288F389E02D8701E1
:1016D0009601A501B401CE011995E881F981A50112
:1016E000460D571D415051090288F389E02D96019E
:1016F000B401CE011995E881F9810088F189E02DC6
:101700009301A501B401CE011995E881F981C80CB6
:10171000D91CB601615071090088F189E02D93014F
:10172000A501CE011995E881F9810688F789E02D98
:10173000CE01DF91CF911F910F91FF90EF90DF903D
:10174000CF90BF90AF909F908F907F906F901994A3
:10175000CF92DF92EF92FF920F931F93CF93DF937D
:1017600000D000D0CDB7DEB76C01DC01ED91FC916B
:101770006217730789F4041715072CF4942F852F2B
:10178000A801092F182F041B150B98012F5F3F4F3D
:10179000048CF58DE02D12C04017510709F526176E
:1017A00037072CF4962F872FB901292F382F261BA6
:1017B000370B2F5F3F4F068CF78DE02D8701C60159
:1017C000199526960FB6F894DEBF0FBECDBFDF91F8
:1017D000CF911F910F91FF90EF90DF90CF900895E0
:1017E0000284F385E02D2D833E834B835C836983E4
:1017F0007A831995D601ED91FC910488F589E02D45
:101800002D813E814B815C8169817A81C601199568
:10181000D601ED91FC910688F789E02DC601269648
:101820000FB6F894DEBF0FBECDBFDF91CF911F91F1
:101830000F91FF90EF90DF90CF901994EF92FF926D
:101840000F931F93DC01ED91FC9111971A960D9166
:101850001C911B9718962D913C91199700A0F1A10E
:10186000E02D7B0140E050E060E070E019951F91B1
:101870000F91FF90EF9008954F925F926F927F9239
:101880008F929F92AF92BF92CF92DF92EF92FF9290
:101890000F931F93CF93DF931F921F92CDB7DEB7A5
:1018A0006C015A0139014801DC01ED91FC9102847F
:1018B000F385E02D69837A8319956981462E7A81B3
:1018C000572E640C751CD601ED91FC9146145704FB
:1018D0006CF40088F189E02D87019401A501B20123
:1018E000C6011995BFEF4B1A5B0AEDCF0688F78941
:1018F000E02DC6010F900F90DF91CF911F910F91B6
:10190000FF90EF90DF90CF90BF90AF909F908F901F
:101910007F906F905F904F901994AF92BF92CF924B
:10192000DF92EF92FF920F931F93CF93DF9300D03C
:101930001F92CDB7DEB75C016901DC01ED91FC912E
:101940000284F385E02D4B835C8369837A83199548
:10195000D501ED91FC9169817A819B012C0D3D1D92
:10196000215031090488F589E02D78014B815C8193
:101970008A01C5011995D501ED91FC910688F78979
:10198000E02DC5010F900F900F900F90DF91CF9138
:101990001F910F91FF90EF90DF90CF90BF90AF908D
:1019A0001994AF92BF92CF92DF92EF92FF920F9372
:1019B0001F93CF93DF9300D01F92CDB7DEB75C01AA
:1019C0006901DC01ED91FC910284F385E02D4B83EC
:1019D0005C8369837A831995D501ED91FC914B81E4
:1019E0005C81C40ED51EB1E0CB1AD1080488F589FC
:1019F000E02D7801860169817A819B01C5011995E5
:101A0000D501ED91FC910688F789E02DC5010F9075
:101A10000F900F900F90DF91CF911F910F91FF903A
:101A2000EF90DF90CF90BF90AF9019940895EF9210
:101A3000FF920F931F93DC01ED91FC9100A0F1A1A7
:101A4000E02D19951F910F91FF90EF9008950F933E
:101A50001F93DC01ED91FC91068CF78DE02D19951B
:101A60001F910F9108950F931F93DC01ED91FC914D
:101A7000048CF58DE02D19951F910F910895DC01CF
:101A8000ED91FC910084F185E02D199408952F9239
:101A90003F924F925F926F927F928F929F92AF92FE
:101AA000BF92CF92DF92EF92FF920F931F93CF934B
:101AB000DF9300D0CDB7DEB74C017B836A836A0128
:101AC000590117019801241B350B37FF03C03195CD
:101AD00021953109C5014A815B81841B950B97FFD4
:101AE00003C091958195910951E05983821793071D
:101AF00014F019820BC09A2D8B2D5801092F182F25
:101B00009A818B81DB82CA82C92ED82E8A819B81E1
:101B1000A816B9065CF49C2D8D2D6801092F182F8D
:101B20009A818B81BB82AA82A92EB82E2501AA8117
:101B3000BB814A1A5B0A38016C187D0877FE03C026
:101B4000719461947108720157FE03C0BFEFEB1AE4
:101B5000FB0AF594E794C016D1061CF00FEF1FEFB7
:101B60001FC001E010E01CC0D401ED91FC91B981CF
:101B70000484F585E02D9101BB23C1F04A815B818E
:101B8000B601C4011995E618F708F7FE04C0C00EA7
:101B9000D11EE40CF51CEA81FB813196FB83EA83BC
:101BA0004A815B81A416B506FCF604C0A6016A81D1
:101BB0007B81E7CF0F900F900F90DF91CF911F9116
:101BC0000F91FF90EF90DF90CF90BF90AF909F90DC
:101BD0008F907F906F905F904F903F902F900895DF
:101BE00085ED8093BC008091BC0084FDFCCF1092F9
:101BF000070708954091B306262F30E0240F311DCA
:101C000021323105DCF4209107072430C9F4FC01AE
:101C100080E090E0861758F43091B3062191DC0102
:101C2000AF56B94FA30FB11D2C930196F3CF8091FE
:101C3000B306680F6093B30680E0089581E00895CD
:101C400082E00895089581E090E030918F06209120
:101C50008E06321710F480E090E0919581959109FD
:101C6000089580918F0690918E06891730F48F5FCA
:101C700080938F0680E090E008958FEF9FEF0895A6
:101C800080918E0690E020918F06821B9109089525
:101C9000CF92DF92EF92FF920F931F93CF93DF9338
:101CA0007C01262F972F8A0180910807882391F0C5
:101CB000C62FD72F6E01C40ED51ECC15DD0569F0D9
:101CC0006991D701ED91FC910190F081E02DC70160
:101CD0001995F3CF642F822F8DDFC801DF91CF914B
:101CE0001F910F91FF90EF90DF90CF900895CF93C9
:101CF000DF931F92CDB7DEB76983209108072223B7
:101D0000D1F020912A07203240F021E030E0FC01A0
:101D10003383228380E090E014C080910907E82F8C
:101D2000F0E0E65FF84F998190838F5F8093090719
:101D300080932A0704C061E0CE0101965BDF81E059
:101D400090E00F90DF91CF910895089580E090E0AA
:101D500008950E94CE201F920F920FB60F92112469
:101D60000BB60F922F933F934F935F936F937F9395
:101D70008F939F93AF93BF93EF93FF938BE297E083
:101D80000E941004FF91EF91BF91AF919F918F91AD
:101D90007F916F915F914F913F912F910F900BBE6B
:101DA0000F900FBE0F901F9018951F920F920FB6B5
:101DB0000F9211240BB60F922F938F939F93EF9353
:101DC000FF93E0913B07F0913C078081E091410750
:101DD000F091420782FD12C09081809144078F5F8D
:101DE0008F7320914507821751F0E0914407F0E08E
:101DF000E55DF84F958F8093440701C08081FF9186
:101E0000EF919F918F912F910F900BBE0F900FBE6E
:101E10000F901F901895362F90E0FC01E85FF94F66
:101E20004491FC01E853F94F2491FC01EE57F94F1E
:101E30009491992309F46BC0442309F455C050E0F0
:101E4000FA013197E231F10508F04EC08827EE58CB
:101E5000FF4F8F4F0C94C620809180008F7707C072
:101E6000809180008F7D03C080918000877F809368
:101E700080003AC084B58F7702C084B58F7D84BD61
:101E800033C08091B0008F7703C08091B0008F7D08
:101E90008093B00029C0809190008F7707C0809117
:101EA00090008F7D03C080919000877F8093900089
:101EB0001BC08091A0008F7707C08091A0008F7D0C
:101EC00003C08091A000877F8093A0000DC0809107
:101ED00020018F7707C0809120018F7D03C0809102
:101EE0002001877F80932001E92FF0E0EE0FFF1F94
:101EF000E25BF94FA591B4918FB7F894EC91311151
:101F000003C020952E2301C02E2B2C938FBF089544
:101F10008F929F92AF92BF92CF92DF92EF92FF92F9
:101F20006B017C010E94D0044B015C01C114D104FF
:101F3000E104F104F1F00E94D004DC01CB01881926
:101F40009909AA09BB09883E9340A105B10570F320
:101F500021E0C21AD108E108F10888EE880E83E07A
:101F6000981EA11CB11CC114D104E104F10419F79D
:101F7000DDCFFF90EF90DF90CF90BF90AF909F901C
:101F80008F9008951F920F920FB60F9211242F93E6
:101F90003F938F939F93AF93BF938091D906909176
:101FA000DA06A091DB06B091DC063091D80623E07A
:101FB000230F2D3720F40196A11DB11D05C026E881
:101FC000230F0296A11DB11D2093D8068093D90638
:101FD0009093DA06A093DB06B093DC068091DD06D1
:101FE0009091DE06A091DF06B091E0060196A11D5A
:101FF000B11D8093DD069093DE06A093DF06B093BB
:10200000E006BF91AF919F918F913F912F910F90DB
:102010000FBE0F901F9018951F920F920FB60F9240
:1020200011240BB60F922F933F934F935F936F93AF
:102030007F938F939F93AF93BF93EF93FF93809181
:10204000B900887F803609F49CC068F5883209F4AD
:102050005BC090F4803109F454C038F4882309F44B
:10206000F6C0883009F44DC0F5C0883109F44CC081
:10207000803209F45DC0EEC0803409F468C048F4D1
:10208000803309F455C0883309F0E4C08093050714
:10209000D8C0803509F44FC0883509F45DC0883454
:1020A00009F0D8C0D6C0883909F4C7C0A8F4883769
:1020B00009F467C038F4883609F463C0803709F43E
:1020C00060C0C8C0883809F4B8C0803909F45FC05E
:1020D000803809F0BFC05BC0803B09F486C038F48B
:1020E000803A09F466C0883A09F47FC0B3C0803CE6
:1020F00009F4A7C0883C09F4A4C0883B09F48AC04D
:10210000A9C08091E20610C0909104078091030756
:10211000981770F5E091040781E08E0F8093040713
:10212000F0E0ED51F94F80818093BB0085EC86C0D3
:10213000809305078EC0E091040781E08E0F8093A5
:1021400004078091BB00F0E0ED51F94F808390913E
:102150000407809103076EC0E091040781E08E0FB1
:10216000809304078091BB00F0E0ED51F94F80832C
:102170008091060781116DC081E08093E10684EAB9
:1021800061C083E0809307071092D706CFCF80917C
:10219000D706803208F051C0E091D70681E08E0F5B
:1021A0008093D7068091BB00F0E0E954F94F80831B
:1021B000BDCF85EC8093BC00109207078091D706B5
:1021C000803230F4E091D706F0E0E954F94F108204
:1021D0006091D70670E0E091B506F091B60687EB06
:1021E00096E019951092D70635C084E080930707D2
:1021F0001092B4061092B306E091B106F091B206C7
:1022000019958091B306811105C081E08093B306D2
:1022100010929106E091B40681E08E0F8093B4068F
:10222000F0E0EF56F94F80818093BB009091B406A7
:102230008091B306981708F479CF85E88093BC00A5
:1022400009C085EC8093BC001092070703C0109270
:102250000507C6DCFF91EF91BF91AF919F918F91E0
:102260007F916F915F914F913F912F910F900BBE96
:102270000F900FBE0F901F90189520912A079091F4
:102280000208213208F04AC0809107078111FCCF73
:1022900032E03093070731E0309306073FEF309389
:1022A00005071092040720930307AAE0B7E043EE66
:1022B00056E0FA013E2F341B321718F43D9131934A
:1022C000F9CF1092E2062091E206990F922B90939B
:1022D000E2069091E106913061F41092E10690914E
:1022E000E2069093BB009091BC0093FDF8CF95EC73
:1022F00001C095EE9093BC00909107079230E1F3F6
:10230000909105079F3F79F080910507803241F059
:1023100080910507803331F084E005C081E003C07F
:1023200082E001C083E01092090710922A07109200
:10233000080708959091F507992339F08EBD0000A4
:102340000DB407FEFDCF8EB5089528E030E040E8DB
:10235000E091F807F091F90750819091FF0790956F
:1023600095239083E091F607F091F7079091FE078F
:10237000542F582319F05081952B03C0508190950C
:1023800095239083E091F807F091F907508190919F
:10239000FF07952B9083469521503109C9F6089582
:1023A000CF92DF92EF92FF920F931F93CF93DF9321
:1023B0006C017A018B01C0E0D0E0CE15DF0589F019
:1023C000D8016D918D01D601ED91FC910190F081C4
:1023D000E02DC6011995892B11F47E0102C02196CA
:1023E000ECCFC701DF91CF911F910F91FF90EF903C
:1023F000DF90CF9008953F924F925F926F927F92BD
:102400008F929F92AF92BF92CF92DF92EF92FF9204
:102410000F931F93CF93DF9300D000D0CDB7DEB7DB
:102420002C013B015A014901CA01079697FD079605
:102430009C0193E0359527959A95E1F73A83298396
:10244000C12CD12CE12CF12C312CC701860D971D0C
:102450009C838B83E814F904BCF51E821D82ED81F8
:10246000FE81EA15FB0544F58D819E8187709927D1
:10247000892B11F0330C0EC0ED81FE81F7FD3796EC
:1024800083E0F595E7958A95E1F7EC0DFD1DE25F98
:10249000F84F349037FE0AC098014B815C816D8102
:1024A0007E81640D751D84ED97E0E9DA8D819E8152
:1024B00001969E838D83D3CFFFEFEF1AFF0A298108
:1024C0003A81C20ED31EC1CF26960FB6F894DEBF56
:1024D0000FBECDBFDF91CF911F910F91FF90EF9075
:1024E000DF90CF90BF90AF909F908F907F906F9034
:1024F0005F904F903F900895CF93C82F8091F00741
:102500008F3F51F1E091FA07F091FB0780819091A4
:102510000008982B9083E091FC07F091FD07208143
:1025200090910108909592239083E091FA07F091A1
:10253000FB072081909100089095922390838C2F27
:10254000F9DEE091FA07F091FB0790818091000895
:10255000892B8083CF9108958091EE0791E090932D
:102560000807809302081092090710922A0760E07A
:1025700088EC97E0BCDB6C2F88EC97E0B8DBCF9160
:102580007CCEEF92FF920F931F93CF93DF9381E264
:10259000B3DF80E0B1DF8FE7AFDF82E2ADDF80E065
:1025A000ABDF87E0A9DF8091F0078F3F71F1E09109
:1025B000FA07F091FB07908180910008892B8083B6
:1025C000E091FC07F091FD07908180910108892B33
:1025D0008083E091FA07F091FB07908180910008D9
:1025E000809589238083C0E0D2E08991A3DE86E0D4
:1025F000C030D807D1F7E091FA07F091FB0790813E
:1026000080910008892B80832DC0F090B8008CE069
:102610008093B800C0E0D2E0EE24E3948091EE070E
:10262000E0920807809302081092090710922A0787
:1026300060E488EC97E05BDB00E010E0FE01E00F77
:10264000F11F608188EC97E052DB0F5F1F4F003174
:102650001105A1F712DE609686E0C030D807F1F6CA
:10266000F092B800DF91CF911F910F91FF90EF9002
:1026700008952F923F924F925F926F927F928F9226
:102680009F92AF92BF92CF92DF92EF92FF920F9301
:102690001F93CF93DF937C016B01EA0181E090E00F
:1026A0005C01A41AB50A66247724641A750A660CBC
:1026B000771C00E010E088248394912C822F847092
:1026C000582E822F8270482E822F8870382E2170CB
:1026D000222E0C171D070CF071C0B7FC06C0219705
:1026E00082E0680E711CA60CB71C0F5F1F4F82E0C2
:1026F000880E911CA80CB91C5520B1F021E030E0E7
:10270000A6014C0F5D1FB8016E0D7F1D84ED97E093
:10271000B6D921E030E0A8014C0D5D1DB7016C0F6A
:102720007D1F84ED97E0ABD94420B1F021E030E08B
:10273000A6014C1B5D0BB8016E0D7F1D84ED97E06B
:102740009ED921E030E0A601401B510BB7016C0F70
:102750007D1F84ED97E093D93320B1F021E030E084
:10276000A8014C0D5D1DB7016C1B7D0B84ED97E03E
:1027700086D921E030E0A6014C0F5D1FB701601B38
:10278000710B84ED97E07BD9222009F4A2CF21E0E0
:1027900030E0A601401B510BB7016C1B7D0B84ED93
:1027A00097E06DD921E030E0A6014C1B5D0BB7012D
:1027B000601B710B84ED97E062D98BCFDF91CF91D5
:1027C0001F910F91FF90EF90DF90CF90BF90AF904F
:1027D0009F908F907F906F905F904F903F902F9041
:1027E00008952F923F924F925F926F927F928F92B5
:1027F0009F92AF92BF92CF92DF92EF92FF920F9390
:102800001F93CF93DF9300D000D0CDB7DEB75C012C
:102810004B015E834D83280181E090E03C01641A06
:10282000750ACA01919581959109AC01440F551F14
:102830005A8349831801CC24C394D12C522F517050
:102840005B8322702C83C60101972D813E81821704
:1028500093070CF064C077FC0CC08D819E810197BA
:102860009E838D83E981FA813296FA83E9836E0E25
:102870007F1EC601880F991F0196680E791EFB8185
:10288000FF2309F12D813E81220F331F2F5F3F4F20
:10289000240D351D8701A4018D819E81481B590B94
:1028A000B6016A0D7B1D84ED97E0DDD891012D5FA7
:1028B0003F4FA4014C195D096D817E816A0D7B1D1E
:1028C00084ED97E0D0D89C81992311F12D813E8130
:1028D000220F331F2F5F3F4F240D351D8701A401A9
:1028E000ED81FE814E1B5F0BB5016C197D0984EDF6
:1028F00097E0B9D891012D5F3F4FA4014C195D09B4
:10290000B5018D819E81681B790B84ED97E0ABD872
:102910009FEFC91AD90AE2E02E0E311C94CF2696F9
:102920000FB6F894DEBF0FBECDBFDF91CF911F91E0
:102930000F91FF90EF90DF90CF90BF90AF909F905E
:102940008F907F906F905F904F903F902F90089561
:1029500080E094E0E0E0F2E0DF019C011D92215074
:102960003040E1F7089590E0FC01E853F94F2491DD
:10297000FC01EE57F94F8491882399F090E0880F7D
:10298000991FFC01E859F94FA591B491FC01E25B54
:10299000F94F859194918FB7F894EC91E22BEC93D9
:1029A0008FBF08954F925F926F927F92EF92FF9246
:1029B0000F931F93CF93DF93CDB7DEB7A1970FB6D9
:1029C000F894DEBF0FBECDBF7C01FA01CB0119A286
:1029D000223008F42AE08E010F5D1F4F422E512C49
:1029E000612C712CBF01A30192010E948920F90181
:1029F000CA01015011096A3014F4605D01C0695CBC
:102A0000D8016C93232B242B252B61F7B801C70128
:102A100011D0A1960FB6F894DEBF0FBECDBFDF91E7
:102A2000CF911F910F91FF90EF907F906F905F90EB
:102A30004F9008956115710579F0FB010190002018
:102A4000E9F73197AF01461B570BDC01ED91FC9183
:102A50000280F381E02D199480E090E00895CF93F7
:102A6000DF93CDB7DEB7CE54D1090FB6F894DEBFF1
:102A70000FBECDBF789484B5826084BD84B581607B
:102A800084BD85B5826085BD85B5816085BD809139
:102A90006E00816080936E001092810080918100B1
:102AA00082608093810080918100816080938100A9
:102AB000809180008160809380008091B10084606B
:102AC0008093B1008091B00081608093B0008091CC
:102AD0009100826080939100809191008160809349
:102AE0009100809190008160809390008091A1007E
:102AF00082608093A1008091A10081608093A100F9
:102B00008091A00081608093A0008091210182606B
:102B10008093210180912101816080932101809126
:102B2000200181608093200180917A0084608093ED
:102B30007A0080917A00826080937A0080917A0096
:102B4000816080937A0080917A00806880937A0017
:102B50001092C100E0913B07F0913C0792E0908316
:102B6000E0913707F09138071082E0913907F09132
:102B70003A078FEC808310924307E0913F07F09172
:102B8000400786E08083E0913D07F0913E07808119
:102B900080618083E0913D07F0913E0780818860ED
:102BA0008083E0913D07F0913E07808180688083BB
:102BB000E0913D07F0913E0780818F7D8083909367
:102BC000EF078CE38093EE078091F0078F3F09F4C5
:102BD000AEC08091F207C7DE8091F407C4DE809119
:102BE000F407082E000C990BFC01EE57F94FE49105
:102BF000F0E0EE0FFF1FE25BF94F25913491309327
:102C0000FB072093FA07FC01E853F94FE491E093A6
:102C100000088091F207082E000C990BFC01EE577A
:102C2000F94FE491F0E0EE0FFF1FE25BF94F2591C1
:102C300034913093FD072093FC07FC01E853F94FD2
:102C4000E491E09301088091F50781113AC08091E9
:102C5000F00789DE8091F10786DE8091F107082E6A
:102C6000000C990BFC01EE57F94FE491F0E0EE0FE8
:102C7000FF1FE25BF94F259134913093F9072093C0
:102C8000F807FC01E853F94FE491E093FF078091C6
:102C9000F007082E000C990BFC01EE57F94FE49158
:102CA000F0E0EE0FFF1FE25BF94F25913491309376
:102CB000F7072093F607FC01E853F94FE491E093FE
:102CC000FE078091F507882309F456C01FB7F894D2
:102CD00080919006811120C0E7EBF6E08491EDEF42
:102CE000F6E09491E82FF0E0EE0FFF1FE859F94F5E
:102CF000A591B491EC91E92319F461E085E38BD8B7
:102D000085E331DE8CB580618CBD8CB580648CBD73
:102D100084E329DE83E327DE809190068F5F809332
:102D200090061FBF80E58CBD81E08DBD25C010924F
:102D30008F0610928E061092090710922A071092A1
:102D4000070781E0809306071092E10661E084E1C5
:102D500062D861E085E15FD88091B9008E7F809371
:102D6000B9008091B9008D7F8093B90088E4809389
:102D7000B80085E48093BC008091F30787FD17C0FD
:102D8000F2DD61E08091F30746D861E070E080E019
:102D900090E0BED860E08091F3073DD86AE070E033
:102DA00080E090E0B5D861E08091F30734D88EEAF6
:102DB000A3DB85EDA1DB80E89FDB88EA9DDB8FE369
:102DC0009BDB83ED99DB80E097DB80E495DB8DE88E
:102DD00093DB84E191DB80E28FDB80E08DDB81EAB5
:102DE0008BDB88EC89DB8AED87DB82E185DB81E8A0
:102DF00083DB8FEC81DB89ED7FDB81EF7DDB8BED8E
:102E00007BDB80E479DB84EA77DB86EA75DB8EE2C4
:102E100073DB8FEA71DBB5DB60ED77E080E090E09B
:102E200077D896DD21E030E04AE050E06AE070E0DB
:102E300084ED97E00E94AB07A4DB60ED77E080E0D3
:102E400090E066D885DDC12CD12C8091DC07909173
:102E5000DD07C816D906BCF40091DE071091DF0724
:102E600001501109EE24E394F12C960140E050E06A
:102E700060E070E084ED97E00E94A80B82DB04E044
:102E8000C00ED11CE2CFC12CD12C8091DE079091D5
:102E9000DF07C816D906BCF42091DC073091DD07A6
:102EA00021503109EE24E394F12C860140E050E0FA
:102EB00060E070E084ED97E00E94A80B62DB14E014
:102EC000C10ED11CE2CF6AEF70E080E090E020D824
:102ED0003FDDC12CD12C8091DC079091DD07409122
:102EE000DE075091DF07C816D9069CF441505109FE
:102EF000EE24E394F12C00E010E0960160E070E035
:102F000084ED97E00E94A80B3CDB24E0C20ED11CAC
:102F1000E2CF6A0131E0C31AD108D7FC1BC020916F
:102F2000DC073091DD07215031094091DE075091D7
:102F3000DF0741505109EE24E394F12C860160E053
:102F400070E084ED97E00E94A80B1BDB44E0C41AFC
:102F5000D108E3CF6AEF70E080E090E00E94880F34
:102F6000F7DCC090DC07D090DD0751E0C51AD1082E
:102F70004091DE075091DF07D7FC17C0415051093F
:102F80006091DC077091DD0761507109EE24E394D4
:102F9000F12C00E010E0960184ED97E00E94A80B70
:102FA000F0DA64E0C61AD108E3CF6A0171E0C71A0B
:102FB000D108D7FC1BC04091DE075091DF0741507C
:102FC00051096091DC077091DD0761507109EE24B1
:102FD000E394F12C860120E030E084ED97E00E943C
:102FE000A80BCFDA84E0C81AD108E3CF6AEF70E00B
:102FF00080E090E00E94880FABDCC12CD12C809146
:10300000DE079091DF07C816D906BCF46091DC0793
:103010007091DD0761507109EE24E394F12C860173
:1030200020E030E040E050E084ED97E00E94A80B03
:10303000A8DA94E0C90ED11CE2CFC12CD12C60914A
:10304000DC077091DD07C616D706BCF40091DE07D9
:103050001091DF070150110961507109EE24E394CA
:10306000F12C960140E050E084ED97E00E94A80B1F
:1030700088DAA4E0CA0ED11CE2CF6AEF70E080E0EB
:1030800090E00E94880F7DDA60ED77E080E090E0CC
:103090000E94880F5DDCA12CB12CC12CD12C009199
:1030A000DE071091DF07C80117FD019695958795FA
:1030B000C816D906CCF40A0D1B1D2091DC073091EF
:1030C000DD072A0D3B1DEE24E394F12CA601B60189
:1030D00084ED97E00E94490B54DAB2E0CB0ED11C8C
:1030E000E4E0AE1AB108DBCF4CDA60ED77E080E0C7
:1030F00090E00E94880F2CDCA12CB12CC12CD12C8B
:10310000992493940091DE071091DF07C80117FD01
:10311000019695958795C816D906DCF490FAEE24A9
:10312000E0F80A0D1B1D2091DC073091DD072A0D08
:103130003B1DF12CA601B60184ED97E00E943C0CEA
:1031400020DA9394F3E0CF0ED11C06E0A01AB10868
:10315000D9CF17DA60ED77E080E090E00E94880F29
:10316000F7DB1EA61DA6C12CD12C4090DE07509087
:10317000DF07C414D5040CF0D1C057FE03C01FEF05
:10318000411A510A55944794E090DC07F090DD070E
:10319000F7FE03C02FEFE21AF20AF594E79401E07C
:1031A00010E00C191D0918A30F8F0DA51EA51EA355
:1031B0000DA321E030E0A2014C0D5D1DB70184EDAF
:1031C00097E00E943F0D21E030E0A2014C195D091B
:1031D000B70184ED97E00E943F0DB7016C0D7D1D96
:1031E00021E030E0A20184ED97E00E943F0DB7019D
:1031F0006C197D0921E030E0A20184ED97E00E9486
:103200003F0D8601212C312C21E030E03AA329A387
:10321000201631060CF077C04F8D58A157FD0CC019
:10322000015011096DA17EA16E5F7F4F7EA36DA33A
:10323000460F571F58A34F8F7FEF271A370A89A1D0
:103240009AA102969AA389A3AF8DB8A1A80FB91F1E
:10325000B8A3AF8F31016E0C7F1C21E030E052012A
:10326000A00EB11EA501B30184ED97E00E943F0DB1
:1032700047018218930821E030E0A501B40184EDF4
:1032800097E00E943F0D21E030E05201A01AB10A00
:10329000A501B30184ED97E00E943F0D21E030E0ED
:1032A000A501B40184ED97E00E943F0D5101A40CEB
:1032B000B51C21E030E0A5014701800E911EB4014C
:1032C00084ED97E00E943F0D21E030E0A501570119
:1032D000A01AB10AB50184ED97E00E943F0D3201BA
:1032E0006218730821E030E0A301B40184ED97E097
:1032F0000E943F0D21E030E0A301B50184ED97E08D
:103300000E943F0D85CF3DD9B2E0CB0ED11C0DA55B
:103310001EA5045011091EA70DA727CF32D960EDB5
:1033200077E080E090E00E94880F12DB6091DE077A
:103330007091DF0777FF02C06F5F7F4F5B01B5942D
:10334000A7948091DC079091DD0797FD01966C01B1
:10335000D594C794A5014A50510901E010E025E138
:1033600030E0B60184ED97E00E94330DEE24E39443
:10337000F12C00E010E023E04AE050E0B501C60186
:1033800030DAFFD860ED77E080E090E00E94880FAF
:10339000DFDAE12CF12CA12CB12C4090DE0750900B
:1033A000DF07C20157FC0196959587950297A816ED
:1033B000B9060CF076C0620157FE03C013E0C10EDF
:1033C000D11CD594C794D594C79412012E0C3F1CE0
:1033D0006090DC077090DD079701260D371D38A33C
:1033E0002F8F662477246C187D08660C771C2901C2
:1033F000460C571C45018C0C9D1C01E010E092010D
:10340000A501B40184ED97E00E94270DA501420DAE
:10341000531D5EA34DA3415051099201B40184EDA7
:1034200097E00E94270D2101460C571C9201A40130
:10343000B50184ED97E00E94330D6F8C78A06A0C83
:103440007B1CB301615071099201A40184ED97E0E6
:103450000E94330D21E0A601B401C4010AD96C1801
:103460007D0851E0651A710822E0A601B401C3018C
:1034700000D90DA11EA10C191D090150110924E04C
:10348000A601B801C301F5D828E0A601B801C4011E
:10349000F0D877D862E0A60EB11C74E0E71AF10804
:1034A0007CCF60ED77E080E090E00E94880F50DAFA
:1034B000212C312CA12CB12C81E08F8F8090DE0744
:1034C0009090DF07C40197FC019695958795029728
:1034D000A816B9060CF051C09F8D692E712C64019D
:1034E00097FE03C0A3E0CA0ED11CD594C794D5940F
:1034F000C794F401E20DF31DFEA3EDA38091DC0758
:103500009091DD078101080F191F1AA309A38824D0
:1035100099248C189D08880C991C25014C0C5D1C65
:103520009801280D391D73018F01A501B20184EDA9
:1035300097E00E94170D800E911E11E0811A9108EC
:1035400089A19AA18A0D9B1D8C199D09840121E0F6
:10355000A601B201019745D922E0A601B201C2013C
:1035600040D981E02F8D28272F8F0BD832E0A30E72
:10357000B11C44E0241A3108A1CF60ED77E080E06F
:1035800090E00E94880FE4D9812C912CA090DC0758
:10359000B090DD07C090DE07D090DF07AC14BD040B
:1035A00024F4C501B7FE04C002C0C601D7FC0196D1
:1035B0009595879588169906CCF5D7FE03C05FEFE1
:1035C000C51AD50AD594C7943601680C791CB7FE84
:1035D00003C06FEFA61AB60AB594A7941501280C7C
:1035E000391C250148185908C818D908EE24E39455
:1035F000F12C83019201A601B50184ED97E00E94B0
:10360000A80B9101A301B20184ED97E00E94A80BE1
:1036100086019501A301B10184ED97E00E94A80BFA
:103620000E94C11275E0870E911CB0CF60ED77E06B
:1036300080E090E00E94880F8BD98091DC07909108
:10364000DD07E090DE07F090DF078E159F053CF464
:103650007C0197FF09C08FEFE81AF80A05C0F7FE52
:1036600003C09FEFE91AF90AF594E7941E141F04AA
:103670000CF092C18091DE079091DF0797FD0196D3
:10368000959587956C01CE0CDF1C2091DC0730915D
:10369000DD0737FF02C02F5F3F4F35952795490162
:1036A0008E0C9F1C5901AE18BF08DC01AE19BF0972
:1036B000B8A3AF8FCA16DB0634F4CA16DB0661F571
:1036C000B901950108C08F8D98A18C159D0509F051
:1036D0001BC4B40145018216930654F0922F832F28
:1036E0002815390514F4982D892D4901292F382FD3
:1036F000681579052CF0261737070CF49B01B401E7
:10370000261B370B2F5F3F4F01E010E0A60184ED31
:1037100097E00E94270D3AC1A4014A195B09EF8D79
:10372000F8A1EC19FD09FEA3EDA3002711270E193E
:103730001F091EA70DA7FAA7E9A796012150310975
:103740003AAF29AFDAAAC9AA80E090E029A83AA83E
:103750001DAA1EAA1FAA18AE412C512C32018C01A1
:10376000990F220B330B0BAF1CAF2DAF3EAF6DA1EA
:103770007EA1072E000C880B990B23966CAF7DAFB2
:103780008EAF9FAF2397CA01550FAA0BBB0B27968D
:103790008CAF9DAFAEAFBFAF279787010F2C000C4A
:1037A000220B330B2B960CAF1DAF2EAF3FAF2B97D9
:1037B00009AD1AAD021513050CF452C0C301B201D4
:1037C0002BAD3CAD4DAD5EAD78D4B501620F731F2E
:1037D0007AA369A36DA97EA98FA998AD23962CAD74
:1037E0003DAD4EAD5FAD239768D42A0D3B1D2796A6
:1037F0008CAD9DADAEADBFAD2797480E591E6A1E6C
:103800007B1E4DA95EA96FA978AD2B968CAD9DADA1
:10381000AEADBFAD2B97480F591F6A1F7B1F4DAB35
:103820005EAB6FAB78AFA9A1BAA12A173B0734F4FE
:1038300099A18AA13AA329A3292F382FE9A1FAA196
:103840002E1B3F0B2F5F3F4F01E010E0A101BF0196
:1038500084ED97E00E94270DFFEF2F1A3F0AA8CFB3
:10386000C1018C199D092DA53EA5289F2001299FE6
:10387000500C389F500C1124052C000C660877085A
:10388000910149A95AA9241B350BE29EC001E39E70
:10389000900DF29E900D11248C01990F220B330B89
:1038A00009A31AA32BA33CA329A53AA5032E000C18
:1038B000440B550B29A73AA74BA75CA74DA15EA1C6
:1038C000052E000C660B770B4DA35EA36FA378A7A4
:1038D0006DA57EA5072E000C880B990B6DA77EA702
:1038E0008FA798ABC7010F2C000CAA0BBB0B89ABA1
:1038F0009AABABABBCAB6F8D78A1621573050CF4C2
:1039000045C0C301B20129A53AA54BA55CA5D5D3F5
:103910006401C20ED31E69A17AA18BA19CA12DA125
:103920003EA14FA158A5C9D32A0D3B1D4DA55EA5AB
:103930006FA578A9440E551E661E771E89A19AA10F
:10394000ABA1BCA149A95AA96BA97CA9840F951F59
:10395000A61FB71F89A39AA3ABA3BCA32C153D0533
:103960002CF49C2D8D2D6901292F382F2C193D0900
:103970002F5F3F4F01E010E0A101B60184ED97E019
:103980000E94270D5FEF251A350AB5CF0E94C1129C
:1039900075E0E71AF1086ACE60ED77E080E090E02C
:1039A0000E94880F0E94A81481E08093E80781E0BC
:1039B00090E09093E7078093E6079093E507809364
:1039C000E4071092E1071092E0071092E3071092CB
:1039D000E20710E005E11A3089F0612F84ED97E0ED
:1039E0000E94750A112351F0812F602FC3D39111CA
:1039F00005C064E676E084ED97E01CD81F5F183AB6
:103A000051F70E94C1120E94C11260ED77E080E080
:103A100090E00E94880F0E94A81492E0F92EF09284
:103A2000E80701E010E01093E7070093E607109322
:103A3000E5070093E4078AE090E09093E107809324
:103A4000E0071092E3071092E2070E94A81467E6CD
:103A500076E084ED97E00E941A1564E676E084ED46
:103A600097E00E941A150E94C11286E20E947C1201
:103A700080E00E947C1280E00E947C1280E00E9424
:103A80007C128FE00E947C1280E00E947C128FEFFB
:103A90000E947C128FE20E947C1260ED77E080E051
:103AA00090E00E94880F8EE20E947C1268EE73E024
:103AB00080E090E00E94880F87E20E947C1280E004
:103AC0000E947C1280E00E947C1280E00E947C12A6
:103AD0008FE00E947C1280E00E947C128FEF0E9497
:103AE0007C128FE20E947C1260ED77E080E090E033
:103AF0000E94880F8EE20E947C1268EE73E080E0E4
:103B000090E00E94880F83EA0E947C1280E00E946D
:103B10007C1280E40E947C1289E20E947C1280E088
:103B20000E947C1280E00E947C1280E00E947C1245
:103B300087E00E947C1281E00E947C128FE20E944A
:103B40007C1260ED77E080E090E00E94880F83EACD
:103B50000E947C1280E00E947C1280E40E947C1211
:103B60008AE20E947C1280E00E947C1280E00E9427
:103B70007C1280E00E947C1287E00E947C1281E02F
:103B80000E947C128FE20E947C1260ED77E080E060
:103B900090E00E94880F8EE20E947C1260ED77E038
:103BA00080E090E00E94880F0E94A81481E080933A
:103BB000E8071093E7070093E6071093E5070093E3
:103BC000E4071092E1071092E0071092E3071092C9
:103BD000E2076EE676E084ED97E00E941A1564E64F
:103BE00076E084ED97E00E941A151092E507109296
:103BF000E4071093E7070093E6072AE043E050E06C
:103C000060E070E084ED97E00E94D214E091D40768
:103C1000F091D5070190F081E02D6EE284ED97E000
:103C200019952AE041E050E060E070E084ED97E013
:103C30000E94D2142AE044E050E060E070E084ED9D
:103C400097E00E94D21464E676E084ED97E00E944B
:103C50001A15F092E8071093E7070093E607109310
:103C6000E5070093E4076CE776E084ED97E00E94B7
:103C70001A1520E14FEE5EEB6DEA7EED84ED97E0E4
:103C80000E94D21464E676E084ED97E00E941A1553
:103C90000E94C11260ED77E080E090E00E94880F02
:103CA0000E94A81420E130E040E150E060E170E0C3
:103CB0008EE190E00E94FB110E94C11287EA0E94EF
:103CC0007C1268EE73E080E090E00E94880F86EA44
:103CD0000E947C1268EE73E080E090E00E94880F02
:103CE0000E94A8144E018FE1880E911CDE011296ED
:103CF0007D018E010F5F1F4F25E0422E512C612C5C
:103D0000712C2091DC073091DD07032E000C440B51
:103D1000550B2115310541055105E1F02C962FAFCA
:103D20002C972D963FAF2D972E964FAF2E972F960F
:103D30005FAF2F97B6D12C962FAD2C972D963FAD18
:103D40002D972E964FAD2E972F965FAD2F97B5D10D
:103D50009B01AC01F8012083D7011C92A2D1A301E1
:103D60009201ABD1DD24D394D60EF801D2826FE755
:103D700076E08BE297E00E941A15D8014C9150E052
:103D800060E070E02AE08BE297E00E94D21463E8E2
:103D900076E08BE297E00E941A15F701408150E02F
:103DA00060E070E02AE08BE297E00E94D21468E8BD
:103DB00076E08BE297E00E941A154D2D50E060E00E
:103DC00070E02AE08BE297E00E94D21464E676E08D
:103DD0008BE297E00E941A150D5F1F4FF3E0EF0E84
:103DE000F11C0815190509F08CCF85E0482E512CDF
:103DF000612C712C8E010F5F1F4F7801D701119636
:103E00006C91119770E08C9101E010E020E130E0BE
:103E100040E150E090E00E94FB11B3E0EB0EF11C9A
:103E2000E814F90459F70E94C11268EC70E080E0D0
:103E300090E00E94880FFE0133965F018E010F5FB4
:103E40001F4F68019E012E5F3F4F7901D7016C9192
:103E500070E0F601808100E010E020E130E040E118
:103E600050E090E00E94FB11D5019C91F701808108
:103E7000890F808390E02091DE073091DF072817BB
:103E80003907A4F52091DC073091DD07032E000CE3
:103E9000440B550B2115310541055105E1F02C96D8
:103EA0002FAF2C972D963FAF2D972E964FAF2E9775
:103EB0002F965FAF2F97F5D02C962FAD2C972D9680
:103EC0003FAD2D972E964FAD2E972F965FAD2F9726
:103ED000F4D09B01AC01D6012C93F7011082E1D004
:103EE000A3019201EAD06F5FD5016C93B3E0EB0EB2
:103EF000F11CE3E0CE0ED11CF3E0AF0EB11CC814F0
:103F0000D90409F0A3CF76CF442755274E195F096E
:103F1000C6010F8D18A1801B910B9EA38DA3B40128
:103F20006A197B097EA76DA7450159011AAB09AB38
:103F3000D8A2CF8EDAAEC9AE1AA619A607CCEBE28C
:103F4000F7E01382128288EE93E0A0E0B0E0848371
:103F50009583A683B78328E136E03183208325EC5F
:103F600030E03587248724EC30E03787268720EC43
:103F700030E0318B208B21EC30E0338B228B22EC34
:103F800030E0358B248B26EC30E0378B268B118E7E
:103F9000128E138E148EE8ECF7E013821282848363
:103FA0009583A683B7838AE296E091838083E4EDCC
:103FB000F7E01382128220E830E03583248380E426
:103FC00090E0978386833187208793878287158A3D
:103FD000158614861786168681E0848B2FEF3FEFB7
:103FE000338B228B318B208B868B178A118E108E10
:103FF0008CE396E0918380838CE080A38DE0878FB3
:104000008BE0868F8AE0858F89E0848F11A20895E6
:104010008F929F92AF92BF92CF92DF92EF92FF92D8
:10402000CF93DF93EC01688179818A819B8161154F
:1040300071058105910521F464E279ED8BE597E046
:104040002DE133EF41E050E038D049015A019B01A6
:10405000AC01A7EAB1E44DD06B017C01ACEEB4EF4A
:10406000A501940152D0DC01CB018C0D9D1DAE1D2C
:10407000BF1DB7FF03C00197A109B048888399838A
:10408000AA83BB83BC01CD019F77DF91CF91FF90C5
:10409000EF90DF90CF90BF90AF909F908F9008955A
:1040A000B7CF80E096E0B4CF60930006709301062E
:1040B00080930206909303060895052E97FB16F44D
:1040C00000940FD057FD05D024D007FC02D046F451
:1040D00008C050954095309521953F4F4F4F5F4F09
:1040E000089590958095709561957F4F8F4F9F4F64
:1040F000089531D0A59F900DB49F900DA49F800D81
:10410000911D11240895B7FFF4CFF3DF821B930BA9
:104110000895A1E21A2EAA1BBB1BFD010DC0AA1F08
:10412000BB1FEE1FFF1FA217B307E407F50720F020
:10413000A21BB30BE40BF50B661F771F881F991F9B
:104140001A9469F760957095809590959B01AC01E4
:10415000BD01CF010895A29FB001B39FC001A39FED
:10416000700D811D1124911DB29F700D811D1124B0
:10417000911D0895991B79E004C0991F961708F0C6
:10418000961B881F7A95C9F780950895EE0FFF1F3B
:10419000881F8BBF0790F691E02D199481E090E085
:0841A000F89400C0F894FFCF71
:1041A8000000000000000000000000000000000007
:1041B80000000000000000000000000000000000F7
:1041C80000000000000000000000000000000000E7
:1041D8000000000000000000000000000000008057
:1041E80080800000000000000000000000000000C7
:1041F800008080C0C0000000000000000000000037
:1042080000000000000000000000000000000000A6
:104218000000000000000000000000000000000096
:104228000000000000000000000000000000000086
:104238000000000080C0E0F0F8FCF8E0000000009A
:1042480000000000000000000000000000808080E6
:10425800808000808000000000808080808000FFD7
:10426800FFFF000000008080808000008080000048
:1042780080FFFF80800080800080808080008080B8
:104288000000000000808000008C8E84000080F810
:10429800F8F88000000000000000000000000000A6
:1042A800F0F0F0F0F0F0F0F0F0F0F0F0E0E0C080C6
:1042B80000E0FCFEFFFFFF7FFFFFFFFFFF000000A5
:1042C8000000000000000000000000FEFFC7010120
:1042D800010183FFFF00007CFEC70101010183FF8C
:1042E800FFFF0038FEC78301010183C7FFFF0000FD
:1042F80001FFFF010100FFFF0701010100007FFF2F
:1043080080000000FFFF7F0000FFFFFF000001FFAB
:10431800FFFF010000000000000000000000000096
:10432800030F3F7F7FFFFFFFFFFFFFFFE7C7C78F39
:104338008F9FBFFFFFC3C0F0FFFFFFFFFFFCFCFC28
:10434800FCFCFCFCFCF8F8F0F0E0C00001030303FF
:104358000303010303000000000103030303010139
:10436800030100000001030303030101030300002C
:104378000003030000000303000000000000000128
:10438800030303030301000000010301000000030D
:104398000301000000000000000000000000000011
:1043A80000000080C0E0F0F9FFFFFFFFFF3F1F0F94
:1043B80087C7F7FFFF1F1F3DFCF8F8F8F87C7DFF63
:1043C800FFFFFFFFFFFFFF7F3F0F070030300000B8
:1043D80000000000000000000000000000000000D5
:1043E80000000000FEFEFC000000000000000000CD
:1043F80000000000000000000000000000E0C00015
:104408000000000000000000000030300000000044
:104418000000000000000000000000000000000094
:1044280000C0FEFFFFFFFFFFFFFFFFFF7F7F3F1F73
:104438000F071F7FFFFFF8F8FFFFFFFFFFFEF8E001
:10444800000000010000000000000000FEFE000067
:1044580000FCFEFC0C06060EFCF80000F0F81C0E32
:104468000606060CFFFFFF0000FEFE00000000FC31
:10447800FEFC00183C7E66E6CE84000006FFFF06C0
:1044880006FCFEFC0C0606060000FEFE0000C0F856
:10449800FC4E4646464E7C7840183C76E6CECC80AC
:1044A8000000000000000000000000000000000004
:1044B8000000000001070F1F1F3F3F3F3F1F0F0372
:1044C8000000000000000000000000000F0F0000C6
:1044D800000F0F0F000000000F0F000003070E0C65
:1044E80018180C060F0F0F0000010F0E0C180C0FF8
:1044F800070100040E0C180C0F070000000F0F0036
:10450800000F0F0F0000000000000F0F0000000751
:10451800070C0C181C0C060600040E0C180C0F07D0
:104528000000000000000000000000000000000083
:104538000000000000000000000000000000000073
:104548000000000000000000000000000000000063
:104558000000000000000000000000000000000053
:104568000000000000000000000000000000000043
:104578000000000000000000000000000000000033
:104588000000000000000000000000000000000023
:104598000000000000000000000000000000000013
:1045A80001000000000103070F1F3F7F0080C0E0EB
:1045B800F0F8FCFE000000003104D011CA037704B3
:1045C800FB03D903ED0300000000770E480EA60E8A
:1045D800220E400E310E230E00000000750AD01185
:1045E800A60EA50EAB07460D3F0D170D330D270D73
:1045F800470D160D4A084908F5044F063C0C1E0CD9
:10460800A80B490B0D0A007363726F6C6C00486548
:104618006C6C6F2C20776F726C6421003078007896
:0E4628003A200020793A20002064793A2000E0
:00000001FF
